{
	"contracts/ex_9_1.sol": {
		"Loop": {
			"abi": [
				{
					"inputs": [],
					"name": "doWhileLoop",
					"outputs": [],
					"stateMutability": "nonpayable",
					"type": "function"
				},
				{
					"inputs": [
						{
							"internalType": "uint256",
							"name": "",
							"type": "uint256"
						}
					],
					"name": "num",
					"outputs": [
						{
							"internalType": "uint256",
							"name": "",
							"type": "uint256"
						}
					],
					"stateMutability": "view",
					"type": "function"
				}
			],
			"devdoc": {
				"kind": "dev",
				"methods": {},
				"version": 1
			},
			"evm": {
				"assembly": "    /* \"contracts/ex_9_1.sol\":185:375  contract Loop{... */\n  mstore(0x40, 0x80)\n  callvalue\n  dup1\n  iszero\n  tag_1\n  jumpi\n  0x00\n  dup1\n  revert\ntag_1:\n  pop\n  dataSize(sub_0)\n  dup1\n  dataOffset(sub_0)\n  0x00\n  codecopy\n  0x00\n  return\nstop\n\nsub_0: assembly {\n        /* \"contracts/ex_9_1.sol\":185:375  contract Loop{... */\n      mstore(0x40, 0x80)\n      callvalue\n      dup1\n      iszero\n      tag_1\n      jumpi\n      0x00\n      dup1\n      revert\n    tag_1:\n      pop\n      jumpi(tag_2, lt(calldatasize, 0x04))\n      shr(0xe0, calldataload(0x00))\n      dup1\n      0x174c9c7e\n      eq\n      tag_3\n      jumpi\n      dup1\n      0xaa228b75\n      eq\n      tag_4\n      jumpi\n    tag_2:\n      0x00\n      dup1\n      revert\n        /* \"contracts/ex_9_1.sol\":228:373  function doWhileLoop() public {... */\n    tag_3:\n      tag_5\n      tag_6\n      jump\t// in\n    tag_5:\n      stop\n        /* \"contracts/ex_9_1.sol\":204:221  uint[] public num */\n    tag_4:\n      tag_7\n      0x04\n      dup1\n      calldatasize\n      sub\n      dup2\n      add\n      swap1\n      tag_8\n      swap2\n      swap1\n      tag_9\n      jump\t// in\n    tag_8:\n      tag_10\n      jump\t// in\n    tag_7:\n      mload(0x40)\n      tag_11\n      swap2\n      swap1\n      tag_12\n      jump\t// in\n    tag_11:\n      mload(0x40)\n      dup1\n      swap2\n      sub\n      swap1\n      return\n        /* \"contracts/ex_9_1.sol\":228:373  function doWhileLoop() public {... */\n    tag_6:\n        /* \"contracts/ex_9_1.sol\":268:274  uint x */\n      0x00\n        /* \"contracts/ex_9_1.sol\":288:367  do{... */\n    tag_14:\n        /* \"contracts/ex_9_1.sol\":304:307  num */\n      0x00\n        /* \"contracts/ex_9_1.sol\":315:316  3 */\n      0x03\n        /* \"contracts/ex_9_1.sol\":313:314  x */\n      dup3\n        /* \"contracts/ex_9_1.sol\":313:316  x*3 */\n      tag_17\n      swap2\n      swap1\n      tag_18\n      jump\t// in\n    tag_17:\n        /* \"contracts/ex_9_1.sol\":304:317  num.push(x*3) */\n      swap1\n      dup1\n      0x01\n      dup2\n      sload\n      add\n      dup1\n      dup3\n      sstore\n      dup1\n      swap2\n      pop\n      pop\n      0x01\n      swap1\n      sub\n      swap1\n      0x00\n      mstore\n      keccak256(0x00, 0x20)\n      add\n      0x00\n      swap1\n      swap2\n      swap1\n      swap2\n      swap1\n      swap2\n      pop\n      sstore\n        /* \"contracts/ex_9_1.sol\":331:334  x++ */\n      dup1\n      dup1\n      tag_20\n      swap1\n      tag_21\n      jump\t// in\n    tag_20:\n      swap2\n      pop\n      pop\n        /* \"contracts/ex_9_1.sol\":364:365  5 */\n      0x05\n        /* \"contracts/ex_9_1.sol\":360:361  x */\n      dup2\n        /* \"contracts/ex_9_1.sol\":360:365  x !=5 */\n      sub\n        /* \"contracts/ex_9_1.sol\":288:367  do{... */\n      tag_14\n      jumpi\n        /* \"contracts/ex_9_1.sol\":258:373  {... */\n      pop\n        /* \"contracts/ex_9_1.sol\":228:373  function doWhileLoop() public {... */\n      jump\t// out\n        /* \"contracts/ex_9_1.sol\":204:221  uint[] public num */\n    tag_10:\n      0x00\n      dup2\n      dup2\n      sload\n      dup2\n      lt\n      tag_22\n      jumpi\n      0x00\n      dup1\n      revert\n    tag_22:\n      swap1\n      0x00\n      mstore\n      keccak256(0x00, 0x20)\n      add\n      0x00\n      swap2\n      pop\n      swap1\n      pop\n      sload\n      dup2\n      jump\t// out\n        /* \"#utility.yul\":88:205   */\n    tag_25:\n        /* \"#utility.yul\":197:198   */\n      0x00\n        /* \"#utility.yul\":194:195   */\n      dup1\n        /* \"#utility.yul\":187:199   */\n      revert\n        /* \"#utility.yul\":334:411   */\n    tag_27:\n        /* \"#utility.yul\":371:378   */\n      0x00\n        /* \"#utility.yul\":400:405   */\n      dup2\n        /* \"#utility.yul\":389:405   */\n      swap1\n      pop\n        /* \"#utility.yul\":334:411   */\n      swap2\n      swap1\n      pop\n      jump\t// out\n        /* \"#utility.yul\":417:539   */\n    tag_28:\n        /* \"#utility.yul\":490:514   */\n      tag_38\n        /* \"#utility.yul\":508:513   */\n      dup2\n        /* \"#utility.yul\":490:514   */\n      tag_27\n      jump\t// in\n    tag_38:\n        /* \"#utility.yul\":483:488   */\n      dup2\n        /* \"#utility.yul\":480:515   */\n      eq\n        /* \"#utility.yul\":470:533   */\n      tag_39\n      jumpi\n        /* \"#utility.yul\":529:530   */\n      0x00\n        /* \"#utility.yul\":526:527   */\n      dup1\n        /* \"#utility.yul\":519:531   */\n      revert\n        /* \"#utility.yul\":470:533   */\n    tag_39:\n        /* \"#utility.yul\":417:539   */\n      pop\n      jump\t// out\n        /* \"#utility.yul\":545:684   */\n    tag_29:\n        /* \"#utility.yul\":591:596   */\n      0x00\n        /* \"#utility.yul\":629:635   */\n      dup2\n        /* \"#utility.yul\":616:636   */\n      calldataload\n        /* \"#utility.yul\":607:636   */\n      swap1\n      pop\n        /* \"#utility.yul\":645:678   */\n      tag_41\n        /* \"#utility.yul\":672:677   */\n      dup2\n        /* \"#utility.yul\":645:678   */\n      tag_28\n      jump\t// in\n    tag_41:\n        /* \"#utility.yul\":545:684   */\n      swap3\n      swap2\n      pop\n      pop\n      jump\t// out\n        /* \"#utility.yul\":690:1019   */\n    tag_9:\n        /* \"#utility.yul\":749:755   */\n      0x00\n        /* \"#utility.yul\":798:800   */\n      0x20\n        /* \"#utility.yul\":786:795   */\n      dup3\n        /* \"#utility.yul\":777:784   */\n      dup5\n        /* \"#utility.yul\":773:796   */\n      sub\n        /* \"#utility.yul\":769:801   */\n      slt\n        /* \"#utility.yul\":766:885   */\n      iszero\n      tag_43\n      jumpi\n        /* \"#utility.yul\":804:883   */\n      tag_44\n      tag_25\n      jump\t// in\n    tag_44:\n        /* \"#utility.yul\":766:885   */\n    tag_43:\n        /* \"#utility.yul\":924:925   */\n      0x00\n        /* \"#utility.yul\":949:1002   */\n      tag_45\n        /* \"#utility.yul\":994:1001   */\n      dup5\n        /* \"#utility.yul\":985:991   */\n      dup3\n        /* \"#utility.yul\":974:983   */\n      dup6\n        /* \"#utility.yul\":970:992   */\n      add\n        /* \"#utility.yul\":949:1002   */\n      tag_29\n      jump\t// in\n    tag_45:\n        /* \"#utility.yul\":939:1002   */\n      swap2\n      pop\n        /* \"#utility.yul\":895:1012   */\n      pop\n        /* \"#utility.yul\":690:1019   */\n      swap3\n      swap2\n      pop\n      pop\n      jump\t// out\n        /* \"#utility.yul\":1025:1143   */\n    tag_30:\n        /* \"#utility.yul\":1112:1136   */\n      tag_47\n        /* \"#utility.yul\":1130:1135   */\n      dup2\n        /* \"#utility.yul\":1112:1136   */\n      tag_27\n      jump\t// in\n    tag_47:\n        /* \"#utility.yul\":1107:1110   */\n      dup3\n        /* \"#utility.yul\":1100:1137   */\n      mstore\n        /* \"#utility.yul\":1025:1143   */\n      pop\n      pop\n      jump\t// out\n        /* \"#utility.yul\":1149:1371   */\n    tag_12:\n        /* \"#utility.yul\":1242:1246   */\n      0x00\n        /* \"#utility.yul\":1280:1282   */\n      0x20\n        /* \"#utility.yul\":1269:1278   */\n      dup3\n        /* \"#utility.yul\":1265:1283   */\n      add\n        /* \"#utility.yul\":1257:1283   */\n      swap1\n      pop\n        /* \"#utility.yul\":1293:1364   */\n      tag_49\n        /* \"#utility.yul\":1361:1362   */\n      0x00\n        /* \"#utility.yul\":1350:1359   */\n      dup4\n        /* \"#utility.yul\":1346:1363   */\n      add\n        /* \"#utility.yul\":1337:1343   */\n      dup5\n        /* \"#utility.yul\":1293:1364   */\n      tag_30\n      jump\t// in\n    tag_49:\n        /* \"#utility.yul\":1149:1371   */\n      swap3\n      swap2\n      pop\n      pop\n      jump\t// out\n        /* \"#utility.yul\":1377:1557   */\n    tag_31:\n        /* \"#utility.yul\":1425:1502   */\n      0x4e487b7100000000000000000000000000000000000000000000000000000000\n        /* \"#utility.yul\":1422:1423   */\n      0x00\n        /* \"#utility.yul\":1415:1503   */\n      mstore\n        /* \"#utility.yul\":1522:1526   */\n      0x11\n        /* \"#utility.yul\":1519:1520   */\n      0x04\n        /* \"#utility.yul\":1512:1527   */\n      mstore\n        /* \"#utility.yul\":1546:1550   */\n      0x24\n        /* \"#utility.yul\":1543:1544   */\n      0x00\n        /* \"#utility.yul\":1536:1551   */\n      revert\n        /* \"#utility.yul\":1563:1973   */\n    tag_18:\n        /* \"#utility.yul\":1603:1610   */\n      0x00\n        /* \"#utility.yul\":1626:1646   */\n      tag_52\n        /* \"#utility.yul\":1644:1645   */\n      dup3\n        /* \"#utility.yul\":1626:1646   */\n      tag_27\n      jump\t// in\n    tag_52:\n        /* \"#utility.yul\":1621:1646   */\n      swap2\n      pop\n        /* \"#utility.yul\":1660:1680   */\n      tag_53\n        /* \"#utility.yul\":1678:1679   */\n      dup4\n        /* \"#utility.yul\":1660:1680   */\n      tag_27\n      jump\t// in\n    tag_53:\n        /* \"#utility.yul\":1655:1680   */\n      swap3\n      pop\n        /* \"#utility.yul\":1715:1716   */\n      dup3\n        /* \"#utility.yul\":1712:1713   */\n      dup3\n        /* \"#utility.yul\":1708:1717   */\n      mul\n        /* \"#utility.yul\":1737:1767   */\n      tag_54\n        /* \"#utility.yul\":1755:1766   */\n      dup2\n        /* \"#utility.yul\":1737:1767   */\n      tag_27\n      jump\t// in\n    tag_54:\n        /* \"#utility.yul\":1726:1767   */\n      swap2\n      pop\n        /* \"#utility.yul\":1916:1917   */\n      dup3\n        /* \"#utility.yul\":1907:1914   */\n      dup3\n        /* \"#utility.yul\":1903:1918   */\n      div\n        /* \"#utility.yul\":1900:1901   */\n      dup5\n        /* \"#utility.yul\":1897:1919   */\n      eq\n        /* \"#utility.yul\":1877:1878   */\n      dup4\n        /* \"#utility.yul\":1870:1879   */\n      iszero\n        /* \"#utility.yul\":1850:1933   */\n      or\n        /* \"#utility.yul\":1827:1966   */\n      tag_55\n      jumpi\n        /* \"#utility.yul\":1946:1964   */\n      tag_56\n      tag_31\n      jump\t// in\n    tag_56:\n        /* \"#utility.yul\":1827:1966   */\n    tag_55:\n        /* \"#utility.yul\":1611:1973   */\n      pop\n        /* \"#utility.yul\":1563:1973   */\n      swap3\n      swap2\n      pop\n      pop\n      jump\t// out\n        /* \"#utility.yul\":1979:2212   */\n    tag_21:\n        /* \"#utility.yul\":2018:2021   */\n      0x00\n        /* \"#utility.yul\":2041:2065   */\n      tag_58\n        /* \"#utility.yul\":2059:2064   */\n      dup3\n        /* \"#utility.yul\":2041:2065   */\n      tag_27\n      jump\t// in\n    tag_58:\n        /* \"#utility.yul\":2032:2065   */\n      swap2\n      pop\n        /* \"#utility.yul\":2087:2153   */\n      0xffffffffffffffffffffffffffffffffffffffffffffffffffffffffffffffff\n        /* \"#utility.yul\":2080:2085   */\n      dup3\n        /* \"#utility.yul\":2077:2154   */\n      sub\n        /* \"#utility.yul\":2074:2177   */\n      tag_59\n      jumpi\n        /* \"#utility.yul\":2157:2175   */\n      tag_60\n      tag_31\n      jump\t// in\n    tag_60:\n        /* \"#utility.yul\":2074:2177   */\n    tag_59:\n        /* \"#utility.yul\":2204:2205   */\n      0x01\n        /* \"#utility.yul\":2197:2202   */\n      dup3\n        /* \"#utility.yul\":2193:2206   */\n      add\n        /* \"#utility.yul\":2186:2206   */\n      swap1\n      pop\n        /* \"#utility.yul\":1979:2212   */\n      swap2\n      swap1\n      pop\n      jump\t// out\n\n    auxdata: 0xa26469706673582212201986db6029e0e64ab06b93c14fe1bf11501349c1efcc5f4292ae7469398cb93864736f6c63430008120033\n}\n",
				"bytecode": {
					"linkReferences": {},
					"object": "608060405234801561001057600080fd5b5061026b806100206000396000f3fe608060405234801561001057600080fd5b50600436106100365760003560e01c8063174c9c7e1461003b578063aa228b7514610045575b600080fd5b610043610075565b005b61005f600480360381019061005a9190610125565b6100c6565b60405161006c9190610161565b60405180910390f35b60005b600060038261008791906101ab565b908060018154018082558091505060019003906000526020600020016000909190919091505580806100b8906101ed565b915050600581036100785750565b600081815481106100d657600080fd5b906000526020600020016000915090505481565b600080fd5b6000819050919050565b610102816100ef565b811461010d57600080fd5b50565b60008135905061011f816100f9565b92915050565b60006020828403121561013b5761013a6100ea565b5b600061014984828501610110565b91505092915050565b61015b816100ef565b82525050565b60006020820190506101766000830184610152565b92915050565b7f4e487b7100000000000000000000000000000000000000000000000000000000600052601160045260246000fd5b60006101b6826100ef565b91506101c1836100ef565b92508282026101cf816100ef565b915082820484148315176101e6576101e561017c565b5b5092915050565b60006101f8826100ef565b91507fffffffffffffffffffffffffffffffffffffffffffffffffffffffffffffffff820361022a5761022961017c565b5b60018201905091905056fea26469706673582212201986db6029e0e64ab06b93c14fe1bf11501349c1efcc5f4292ae7469398cb93864736f6c63430008120033",
					"opcodes": "PUSH1 0x80 PUSH1 0x40 MSTORE CALLVALUE DUP1 ISZERO PUSH2 0x10 JUMPI PUSH1 0x0 DUP1 REVERT JUMPDEST POP PUSH2 0x26B DUP1 PUSH2 0x20 PUSH1 0x0 CODECOPY PUSH1 0x0 RETURN INVALID PUSH1 0x80 PUSH1 0x40 MSTORE CALLVALUE DUP1 ISZERO PUSH2 0x10 JUMPI PUSH1 0x0 DUP1 REVERT JUMPDEST POP PUSH1 0x4 CALLDATASIZE LT PUSH2 0x36 JUMPI PUSH1 0x0 CALLDATALOAD PUSH1 0xE0 SHR DUP1 PUSH4 0x174C9C7E EQ PUSH2 0x3B JUMPI DUP1 PUSH4 0xAA228B75 EQ PUSH2 0x45 JUMPI JUMPDEST PUSH1 0x0 DUP1 REVERT JUMPDEST PUSH2 0x43 PUSH2 0x75 JUMP JUMPDEST STOP JUMPDEST PUSH2 0x5F PUSH1 0x4 DUP1 CALLDATASIZE SUB DUP2 ADD SWAP1 PUSH2 0x5A SWAP2 SWAP1 PUSH2 0x125 JUMP JUMPDEST PUSH2 0xC6 JUMP JUMPDEST PUSH1 0x40 MLOAD PUSH2 0x6C SWAP2 SWAP1 PUSH2 0x161 JUMP JUMPDEST PUSH1 0x40 MLOAD DUP1 SWAP2 SUB SWAP1 RETURN JUMPDEST PUSH1 0x0 JUMPDEST PUSH1 0x0 PUSH1 0x3 DUP3 PUSH2 0x87 SWAP2 SWAP1 PUSH2 0x1AB JUMP JUMPDEST SWAP1 DUP1 PUSH1 0x1 DUP2 SLOAD ADD DUP1 DUP3 SSTORE DUP1 SWAP2 POP POP PUSH1 0x1 SWAP1 SUB SWAP1 PUSH1 0x0 MSTORE PUSH1 0x20 PUSH1 0x0 KECCAK256 ADD PUSH1 0x0 SWAP1 SWAP2 SWAP1 SWAP2 SWAP1 SWAP2 POP SSTORE DUP1 DUP1 PUSH2 0xB8 SWAP1 PUSH2 0x1ED JUMP JUMPDEST SWAP2 POP POP PUSH1 0x5 DUP2 SUB PUSH2 0x78 JUMPI POP JUMP JUMPDEST PUSH1 0x0 DUP2 DUP2 SLOAD DUP2 LT PUSH2 0xD6 JUMPI PUSH1 0x0 DUP1 REVERT JUMPDEST SWAP1 PUSH1 0x0 MSTORE PUSH1 0x20 PUSH1 0x0 KECCAK256 ADD PUSH1 0x0 SWAP2 POP SWAP1 POP SLOAD DUP2 JUMP JUMPDEST PUSH1 0x0 DUP1 REVERT JUMPDEST PUSH1 0x0 DUP2 SWAP1 POP SWAP2 SWAP1 POP JUMP JUMPDEST PUSH2 0x102 DUP2 PUSH2 0xEF JUMP JUMPDEST DUP2 EQ PUSH2 0x10D JUMPI PUSH1 0x0 DUP1 REVERT JUMPDEST POP JUMP JUMPDEST PUSH1 0x0 DUP2 CALLDATALOAD SWAP1 POP PUSH2 0x11F DUP2 PUSH2 0xF9 JUMP JUMPDEST SWAP3 SWAP2 POP POP JUMP JUMPDEST PUSH1 0x0 PUSH1 0x20 DUP3 DUP5 SUB SLT ISZERO PUSH2 0x13B JUMPI PUSH2 0x13A PUSH2 0xEA JUMP JUMPDEST JUMPDEST PUSH1 0x0 PUSH2 0x149 DUP5 DUP3 DUP6 ADD PUSH2 0x110 JUMP JUMPDEST SWAP2 POP POP SWAP3 SWAP2 POP POP JUMP JUMPDEST PUSH2 0x15B DUP2 PUSH2 0xEF JUMP JUMPDEST DUP3 MSTORE POP POP JUMP JUMPDEST PUSH1 0x0 PUSH1 0x20 DUP3 ADD SWAP1 POP PUSH2 0x176 PUSH1 0x0 DUP4 ADD DUP5 PUSH2 0x152 JUMP JUMPDEST SWAP3 SWAP2 POP POP JUMP JUMPDEST PUSH32 0x4E487B7100000000000000000000000000000000000000000000000000000000 PUSH1 0x0 MSTORE PUSH1 0x11 PUSH1 0x4 MSTORE PUSH1 0x24 PUSH1 0x0 REVERT JUMPDEST PUSH1 0x0 PUSH2 0x1B6 DUP3 PUSH2 0xEF JUMP JUMPDEST SWAP2 POP PUSH2 0x1C1 DUP4 PUSH2 0xEF JUMP JUMPDEST SWAP3 POP DUP3 DUP3 MUL PUSH2 0x1CF DUP2 PUSH2 0xEF JUMP JUMPDEST SWAP2 POP DUP3 DUP3 DIV DUP5 EQ DUP4 ISZERO OR PUSH2 0x1E6 JUMPI PUSH2 0x1E5 PUSH2 0x17C JUMP JUMPDEST JUMPDEST POP SWAP3 SWAP2 POP POP JUMP JUMPDEST PUSH1 0x0 PUSH2 0x1F8 DUP3 PUSH2 0xEF JUMP JUMPDEST SWAP2 POP PUSH32 0xFFFFFFFFFFFFFFFFFFFFFFFFFFFFFFFFFFFFFFFFFFFFFFFFFFFFFFFFFFFFFFFF DUP3 SUB PUSH2 0x22A JUMPI PUSH2 0x229 PUSH2 0x17C JUMP JUMPDEST JUMPDEST PUSH1 0x1 DUP3 ADD SWAP1 POP SWAP2 SWAP1 POP JUMP INVALID LOG2 PUSH5 0x6970667358 0x22 SLT KECCAK256 NOT DUP7 0xDB PUSH1 0x29 0xE0 0xE6 0x4A 0xB0 PUSH12 0x93C14FE1BF11501349C1EFCC 0x5F TIMESTAMP SWAP3 0xAE PUSH21 0x69398CB93864736F6C634300081200330000000000 "
				},
				"gasEstimates": {
					"creation": {
						"codeDepositCost": "123800",
						"executionCost": "171",
						"totalCost": "123971"
					},
					"external": {
						"doWhileLoop()": "infinite",
						"num(uint256)": "infinite"
					}
				},
				"methodIdentifiers": {
					"doWhileLoop()": "174c9c7e",
					"num(uint256)": "aa228b75"
				}
			},
			"storageLayout": {
				"storage": [
					{
						"astId": 4,
						"contract": "contracts/ex_9_1.sol:Loop",
						"label": "num",
						"offset": 0,
						"slot": "0",
						"type": "t_array(t_uint256)dyn_storage"
					}
				],
				"types": {
					"t_array(t_uint256)dyn_storage": {
						"base": "t_uint256",
						"encoding": "dynamic_array",
						"label": "uint256[]",
						"numberOfBytes": "32"
					},
					"t_uint256": {
						"encoding": "inplace",
						"label": "uint256",
						"numberOfBytes": "32"
					}
				}
			},
			"userdoc": {
				"kind": "user",
				"methods": {},
				"version": 1
			}
		}
	}
}