{
	"contracts/capsul.sol": {
		"Number": {
			"abi": [
				{
					"inputs": [],
					"name": "changeNum",
					"outputs": [],
					"stateMutability": "nonpayable",
					"type": "function"
				},
				{
					"inputs": [],
					"name": "getNum",
					"outputs": [
						{
							"internalType": "uint256",
							"name": "",
							"type": "uint256"
						}
					],
					"stateMutability": "view",
					"type": "function"
				}
			],
			"devdoc": {
				"kind": "dev",
				"methods": {},
				"version": 1
			},
			"evm": {
				"assembly": "    /* \"contracts/capsul.sol\":67:243  contract Number{... */\n  mstore(0x40, 0x80)\n    /* \"contracts/capsul.sol\":107:108  4 */\n  0x04\n    /* \"contracts/capsul.sol\":88:108  uint private num = 4 */\n  0x00\n  sstore\n    /* \"contracts/capsul.sol\":67:243  contract Number{... */\n  callvalue\n  dup1\n  iszero\n  tag_1\n  jumpi\n  0x00\n  dup1\n  revert\ntag_1:\n  pop\n  dataSize(sub_0)\n  dup1\n  dataOffset(sub_0)\n  0x00\n  codecopy\n  0x00\n  return\nstop\n\nsub_0: assembly {\n        /* \"contracts/capsul.sol\":67:243  contract Number{... */\n      mstore(0x40, 0x80)\n      callvalue\n      dup1\n      iszero\n      tag_1\n      jumpi\n      0x00\n      dup1\n      revert\n    tag_1:\n      pop\n      jumpi(tag_2, lt(calldatasize, 0x04))\n      shr(0xe0, calldataload(0x00))\n      dup1\n      0x2966c024\n      eq\n      tag_3\n      jumpi\n      dup1\n      0x67e0badb\n      eq\n      tag_4\n      jumpi\n    tag_2:\n      0x00\n      dup1\n      revert\n        /* \"contracts/capsul.sol\":114:166  function changeNum() public {... */\n    tag_3:\n      tag_5\n      tag_6\n      jump\t// in\n    tag_5:\n      stop\n        /* \"contracts/capsul.sol\":171:241  function getNum() public view returns(uint){... */\n    tag_4:\n      tag_7\n      tag_8\n      jump\t// in\n    tag_7:\n      mload(0x40)\n      tag_9\n      swap2\n      swap1\n      tag_10\n      jump\t// in\n    tag_9:\n      mload(0x40)\n      dup1\n      swap2\n      sub\n      swap1\n      return\n        /* \"contracts/capsul.sol\":114:166  function changeNum() public {... */\n    tag_6:\n        /* \"contracts/capsul.sol\":158:159  5 */\n      0x05\n        /* \"contracts/capsul.sol\":152:155  num */\n      0x00\n        /* \"contracts/capsul.sol\":152:159  num = 5 */\n      dup2\n      swap1\n      sstore\n      pop\n        /* \"contracts/capsul.sol\":114:166  function changeNum() public {... */\n      jump\t// out\n        /* \"contracts/capsul.sol\":171:241  function getNum() public view returns(uint){... */\n    tag_8:\n        /* \"contracts/capsul.sol\":209:213  uint */\n      0x00\n        /* \"contracts/capsul.sol\":231:234  num */\n      dup1\n      sload\n        /* \"contracts/capsul.sol\":224:234  return num */\n      swap1\n      pop\n        /* \"contracts/capsul.sol\":171:241  function getNum() public view returns(uint){... */\n      swap1\n      jump\t// out\n        /* \"#utility.yul\":7:84   */\n    tag_13:\n        /* \"#utility.yul\":44:51   */\n      0x00\n        /* \"#utility.yul\":73:78   */\n      dup2\n        /* \"#utility.yul\":62:78   */\n      swap1\n      pop\n        /* \"#utility.yul\":7:84   */\n      swap2\n      swap1\n      pop\n      jump\t// out\n        /* \"#utility.yul\":90:208   */\n    tag_14:\n        /* \"#utility.yul\":177:201   */\n      tag_18\n        /* \"#utility.yul\":195:200   */\n      dup2\n        /* \"#utility.yul\":177:201   */\n      tag_13\n      jump\t// in\n    tag_18:\n        /* \"#utility.yul\":172:175   */\n      dup3\n        /* \"#utility.yul\":165:202   */\n      mstore\n        /* \"#utility.yul\":90:208   */\n      pop\n      pop\n      jump\t// out\n        /* \"#utility.yul\":214:436   */\n    tag_10:\n        /* \"#utility.yul\":307:311   */\n      0x00\n        /* \"#utility.yul\":345:347   */\n      0x20\n        /* \"#utility.yul\":334:343   */\n      dup3\n        /* \"#utility.yul\":330:348   */\n      add\n        /* \"#utility.yul\":322:348   */\n      swap1\n      pop\n        /* \"#utility.yul\":358:429   */\n      tag_20\n        /* \"#utility.yul\":426:427   */\n      0x00\n        /* \"#utility.yul\":415:424   */\n      dup4\n        /* \"#utility.yul\":411:428   */\n      add\n        /* \"#utility.yul\":402:408   */\n      dup5\n        /* \"#utility.yul\":358:429   */\n      tag_14\n      jump\t// in\n    tag_20:\n        /* \"#utility.yul\":214:436   */\n      swap3\n      swap2\n      pop\n      pop\n      jump\t// out\n\n    auxdata: 0xa264697066735822122033b5bbb1c38d43b17fe32dbd4792854939d9ae6e33abb24bbbaf16cd6a3e6a1664736f6c63430008120033\n}\n",
				"bytecode": {
					"linkReferences": {},
					"object": "6080604052600460005534801561001557600080fd5b5060d2806100246000396000f3fe6080604052348015600f57600080fd5b506004361060325760003560e01c80632966c02414603757806367e0badb14603f575b600080fd5b603d6059565b005b60456063565b604051605091906083565b60405180910390f35b6005600081905550565b60008054905090565b6000819050919050565b607d81606c565b82525050565b6000602082019050609660008301846076565b9291505056fea264697066735822122033b5bbb1c38d43b17fe32dbd4792854939d9ae6e33abb24bbbaf16cd6a3e6a1664736f6c63430008120033",
					"opcodes": "PUSH1 0x80 PUSH1 0x40 MSTORE PUSH1 0x4 PUSH1 0x0 SSTORE CALLVALUE DUP1 ISZERO PUSH2 0x15 JUMPI PUSH1 0x0 DUP1 REVERT JUMPDEST POP PUSH1 0xD2 DUP1 PUSH2 0x24 PUSH1 0x0 CODECOPY PUSH1 0x0 RETURN INVALID PUSH1 0x80 PUSH1 0x40 MSTORE CALLVALUE DUP1 ISZERO PUSH1 0xF JUMPI PUSH1 0x0 DUP1 REVERT JUMPDEST POP PUSH1 0x4 CALLDATASIZE LT PUSH1 0x32 JUMPI PUSH1 0x0 CALLDATALOAD PUSH1 0xE0 SHR DUP1 PUSH4 0x2966C024 EQ PUSH1 0x37 JUMPI DUP1 PUSH4 0x67E0BADB EQ PUSH1 0x3F JUMPI JUMPDEST PUSH1 0x0 DUP1 REVERT JUMPDEST PUSH1 0x3D PUSH1 0x59 JUMP JUMPDEST STOP JUMPDEST PUSH1 0x45 PUSH1 0x63 JUMP JUMPDEST PUSH1 0x40 MLOAD PUSH1 0x50 SWAP2 SWAP1 PUSH1 0x83 JUMP JUMPDEST PUSH1 0x40 MLOAD DUP1 SWAP2 SUB SWAP1 RETURN JUMPDEST PUSH1 0x5 PUSH1 0x0 DUP2 SWAP1 SSTORE POP JUMP JUMPDEST PUSH1 0x0 DUP1 SLOAD SWAP1 POP SWAP1 JUMP JUMPDEST PUSH1 0x0 DUP2 SWAP1 POP SWAP2 SWAP1 POP JUMP JUMPDEST PUSH1 0x7D DUP2 PUSH1 0x6C JUMP JUMPDEST DUP3 MSTORE POP POP JUMP JUMPDEST PUSH1 0x0 PUSH1 0x20 DUP3 ADD SWAP1 POP PUSH1 0x96 PUSH1 0x0 DUP4 ADD DUP5 PUSH1 0x76 JUMP JUMPDEST SWAP3 SWAP2 POP POP JUMP INVALID LOG2 PUSH5 0x6970667358 0x22 SLT KECCAK256 CALLER 0xB5 0xBB 0xB1 0xC3 DUP14 NUMBER 0xB1 PUSH32 0xE32DBD4792854939D9AE6E33ABB24BBBAF16CD6A3E6A1664736F6C6343000812 STOP CALLER "
				},
				"gasEstimates": {
					"creation": {
						"codeDepositCost": "42000",
						"executionCost": "22199",
						"totalCost": "64199"
					},
					"external": {
						"changeNum()": "22236",
						"getNum()": "2437"
					}
				},
				"methodIdentifiers": {
					"changeNum()": "2966c024",
					"getNum()": "67e0badb"
				}
			},
			"storageLayout": {
				"storage": [
					{
						"astId": 4,
						"contract": "contracts/capsul.sol:Number",
						"label": "num",
						"offset": 0,
						"slot": "0",
						"type": "t_uint256"
					}
				],
				"types": {
					"t_uint256": {
						"encoding": "inplace",
						"label": "uint256",
						"numberOfBytes": "32"
					}
				}
			},
			"userdoc": {
				"kind": "user",
				"methods": {},
				"version": 1
			}
		}
	}
}